:0C0000000C94A6000C9400000C94D3009B
:10000C000C9400000C9400000C9400000C94000064
:10001C000C9400000C9400000C9400000C94000054
:10002C000C94D7000C9400000C9400000C9400006D
:10003C000C9400000C9400000C9400000C94D5005F
:10004C000C9400000C9400001027E80364000A00D4
:10005C000100001000011000010000000000000071
:10006C000000000000000D0022000100415445304A
:10007C000041542B53415042523D332C312C436F91
:10008C006E747970652C475052530041542B534178
:10009C005042523D332C312C41504E2C6D746E69B4
:1000AC0072616E63656C6C0041542B53415042522B
:1000BC003D312C310041542B48545450494E495435
:1000CC000041542B48545450504152413D434944F3
:1000DC002C310041542B48545450504152413D5501
:1000EC00524C2C3139352E3138322E33382E3135A5
:1000FC00312F706F6C6C732F6C6173745F737461E0
:10010C007465004154442B39383932333134373922
:10011C003930383B0041542B4854545041435449D6
:10012C004F4E3D300041542B48545450524541449D
:10013C0000000100020066000A00040068000000D4
:10014C00F894EE27ECBBF1E0FBBFEBBFE5BF8DE015
:10015C00A2E0BB27ED938A95E9F780E094E0A0E656
:10016C00ED930197E9F7EEE3F1E085919591009716
:10017C0061F0A591B59105901590BF01F001059026
:10018C000D920197E1F7FB01F0CFEFE5EDBFE4E055
:10019C00EEBFC0E6D1E00C94000156011895460163
:1001AC001895AA93EA93FA93EFB7EA931A930A93E2
:1001BC001BB10CB1E12FEC7199F4033221F4A09135
:1001CC006801A33209F003C0E1E0F0E06F010A32EC
:1001DC0021F4A0916801AA3209F002C0CC24DD24DC
:1001EC000093680109911991E991EFBFF991E99197
:1001FC00A99118952297E0E0E883E98300E010E0EC
:10020C003AE140E050E0EABBEBBBE8E0E7BBE8BB1F
:10021C00EFEFE4BBE0E0E5BBE0EAE1BBE1E0E2BB31
:10022C00E0E0E3BFE2BFECBFEFBDEEBDEDBDECBD6A
:10023C00E7BDE6BDEBBDEABDE9BDE8BDE2BDE5BD90
:10024C00E4BDE3BDE9BFEBB7E06AEBBFE8E0E5BFB7
:10025C00E0E4E4BFE0EAEABFE0E0EBB9E8E9EAB9E0
:10026C00E6E8E0BDE0E0E0BDE9E1E9B9E0E8E8B9E5
:10027C00E0E0E0BFE6B9EDB9E6BF7894A0E2BEE4F9
:10028C000E945603E8E7F0E00E941103EDE7F0E06E
:10029C000E941103E7E9F0E00E941103E4EBF0E0A7
:1002AC000E942103E1ECF0E00E941103EDECF0E080
:1002BC000E941103AA9AEFEDF0E00E941103E1E015
:1002CC00F0E0EC15FD05B1F4AA9AE815F90531F446
:1002DC00EFE0F1E00E94210388249924E1E0F0E0B2
:1002EC00EA15FB0531F4EFE0F1E00E942103AA24AA
:1002FC00BB2401C0AA98E1E2F1E00E942103E1E3F2
:10030C00F1E00E942103DBCFFFCFAA935D9BFECFD0
:10031C00E881ECB921960895BA93AA93AA81F5DFE6
:10032C00A881B981ED91FD913196FE93EE932396C0
:10033C000895BA93AA9326970E94700310E0AC8597
:10034C00BD85E0E0F0E0ED93FC93EA89FB89319602
:10035C00EA8BFB8B3197E4912E2FE03009F415C119
:10036C00E12FE03039F4253211F411E002C00E9483
:10037C0031030AC1E130A9F4253219F40E9431038A
:10038C0002C112E040E000E02D3211F401E0FCC0AB
:10039C002B3211F44BE2F8C0203211F440E2F4C0DD
:1003AC0002C0E23039F450E013E0203311F400685D
:1003BC00EBC003C0E33009F0E7C0203310F02A3360
:1003CC0008F007C0AAE05A9F502DE22FE0535E0FB1
:1003DC00DBC0E22FE33649F40E943803E889F9893F
:1003EC00A481AA930E943E03CEC0E33741F40E943D
:1003FC0038030E9444030E94F8021E2F0AC0E03703
:10040C0061F40E9438030E9444030E9404031E2FCF
:10041C00086002600F7730E034C0E43611F0E93642
:10042C0011F4046002C0E53731F4E4E5F0E0EE834A
:10043C00FF8315E00CC0E83511F4086003C0E83701
:10044C0009F0A1C0EEE5F0E0EE83FF8314E002FFBB
:10045C0014C00E9438030E944E03AB85AA233AF4C1
:10046C00EA85FB850E946403EA87FB874DE24030F6
:10047C0011F01F5F01C00B7F04C00E9438030E9463
:10048C004E0300FD11C0151778F407FF08C002FFDA
:10049C0004C00B7F242F115001C020E301C020E2C7
:1004AC000E9431035150EFCF312F01FF17C0303074
:1004BC00A1F003FF06C0EE81FF812591EE83FF833F
:1004CC0005C0AE81BF812D91AE83BF830E943103E5
:1004DC00503009F051503150EACF4BC020E3EE813F
:1004EC00FF810E946C03E887F987EE81FF813296C9
:1004FC00EE83FF83E885F985AA85BB85AE17BF0718
:10050C0050F02F5FA885B985EA85FB85EA1BFB0BAC
:10051C00EA87FB87EFCF2A3328F003FF02C0295F5D
:10052C0001C0295D04FD1AC0213320F4A885B985CA
:10053C00119709F409C0531710F000FF01C013C044
:10054C0020E207FF0BC020E3006102FF07C00B7F16
:10055C004A930E943E03503009F051500E943103DF
:10056C00503009F051503150A885B985129708F0D8
:10057C00B5CF00FF08C0503031F05150E0E2EA93A3
:10058C000E943E03F8CF10E0E0CEAC85BD850E9402
:10059C0068030E94770364960895FF92F82E2697BD
:1005AC001A930A93DE0114960E9460038D01E0E019
:1005BC00EC83ED83EE83EF83DE0118960E946003DB
:1005CC000E946803FA93EA931A930A93E2E9F1E022
:1005DC00FA93EA93DE011896ACDE1981088128960D
:1005EC00FF900895BA93AA93A991B991EE27FF278A
:1005FC006D91662311F03196FBCF0895BA93AA93AF
:10060C00AA27BB27E991F9910590002011F01196CA
:10061C00FBCFFD010895FA93EA9380E00E94D30288
:10062C002296ADE00E948B01AAE00E948B01A4EF00
:10063C00B1E00C945603FA93EA9380E00E94D30243
:10064C002296ADE00E948B01AAE00E948B01A8EEDD
:10065C00B3E00C9456032A93AD85BE85EF85F889DB
:10066C0009950895E889F9893497E88BF98B0895F1
:10067C00AD85BE85EF85F88909950895A889B98956
:10068C0014960E946803EE83FF83AE81BF810895A8
:10069C00A889B98914960E946803EA87FB87089594
:1006AC00109639F080ED97E00197F1F7A895119726
:1006BC00C9F708950024AF0DB01D0895F195E1958B
:1006CC00F0400895ED91FC91119708950590F491E7
:1006DC00E02D08955A934A933A932A931A930A93C6
:1006EC0008955D814C813B812A811981088108958F
:00000001FF
